:020000040800F2
:10000000685B0020F50200088D4A0008F90A000824
:10001000254A000849080008BD56000800000000F5
:100020000000000000000000000000003D02000889
:100030004D0800080000000091020008794F0008F8
:100040000F0300080F0300080F0300080F03000848
:100050000F0300080F0300080F0300080F03000838
:100060000F0300080F0300080F0300080F03000828
:100070000F0300080F0300080F0300080F03000818
:100080000F0300080F0300080F0300080F03000808
:100090000F0300080F0300080F0300080F030008F8
:1000A0000F0300080F0300080F0300080F030008E8
:1000B0000F0300080F0300080F0300080F030008D8
:1000C0000F0300080F0300080F0300080F030008C8
:1000D0000F030008215500080F0300080F03000854
:1000E0000F0300080F0300080F0300080F030008A8
:1000F0000F030008155100080F0300080F03000844
:100100000F0300080F0300080F0300080F03000887
:100110000F0300080F0300080F0300080F03000877
:100120000F0300080F0300080F0300080F03000867
:100130000F0300080F0300080F0300080F03000857
:100140000F0300080F0300080F0300080F03000847
:100150000F0300080F0300080F0300080F03000837
:100160000F0300080F0300080F0300080F03000827
:100170000F0300080F0300080F0300080F03000817
:100180000F0300080F03000800F002F800F047F822
:100190000AA090E8000C82448344AAF10107DA45E2
:1001A00001D100F03CF8AFF2090EBAE80F0013F0ED
:1001B000010F18BFFB1A43F001031847EC8E000033
:1001C0000C8F0000103A24BF78C878C1FAD85207C3
:1001D00024BF30C830C144BF04680C6070470000C1
:1001E0000023002400250026103A28BF78C1FBD840
:1001F000520728BF30C148BF0B607047642900F028
:100200001981782900F05281732900F0548200206E
:1002100070471FB507F04EFB1FBD10B510BD00F0B5
:10022000E0FA1146FFF7F5FF05F0A6FA00F0FEFA36
:1002300003B4FFF7F2FF03BC05F041FA2A4B19683B
:100240000868B0E8F04F80F30988BFF36F8F4FF074
:10025000000080F311887047000000000648006825
:10026000006880F3088862B661B6BFF34F8FBFF3B2
:100270006F8F00DF00BF00BF08ED00E0DFF80C006B
:10028000016841F470010160704700BF88ED00E033
:10029000EFF30980BFF36F8F134B1A681EF0100F36
:1002A00008BF20ED108A20E9F04F106008B44FF02D
:1002B000500080F31188BFF34F8FBFF36F8F06F0AC
:1002C0008BFB4FF0000080F3118808BC19680868A8
:1002D000B0E8F04F1EF0100F08BFB0EC108A80F3AA
:1002E0000988BFF36F8F704748000020EFF3058047
:1002F000704700000948804709480047FEE7FEE7CD
:10030000FEE7FEE7FEE7FEE7FEE7FEE7FEE7FEE7C5
:1003100004480549054A064B704700008D4F000808
:100320008901000868550020685B0020685700209C
:1003300068570020704700000FB4044910B503AAA5
:10034000029800F0BDF910BC5DF814FB34000020E9
:100350000FB41CB5074B06AA7B446946009005986C
:1003600000F07FF90020694600F08EF91CBC5DF8B2
:1003700014FB00002D0300002DE9F0410E46044659
:10038000002020622046E168884730B3252805D048
:10039000D4E901219047206A401CF2E7E168204639
:1003A00000278847050018D0A5F14100192802D878
:1003B00020354FF400673246294620462760FFF774
:1003C0001DFF40B1012804D0F61D26F007060836AF
:1003D000D8E7361DD6E72846DAE7206ABDE8F0817F
:1003E00070B50C460546012A05D02878800600D550
:1003F000EA69002302E0012305E05B1C934202D27C
:10040000E05C0028F9D1A869E618C01AA861286A3A
:10041000184428622846AFF3008004E0D5E90121A2
:1004200014F8010B9047B442F8D32846AFF300808C
:1004300070BD00002DE9F0410646002410687529C2
:10044000314616A510D0AFF30080002802DA4042F2
:1004500013A507E031688A0701D512A502E0490714
:1004600004D511A5012401E0AFF3008000210A2288
:1004700006F1240709E0B0FBF2FCB0FBF2F302FB4B
:100480001C00303078541846491C0028F3D123460C
:100490002A463046BDE8F04100F085B80000000073
:1004A0002D0000002B0000002000000070B5044665
:1004B0000D4621461068AFF300802188090502D55A
:1004C0000F4A7A4402E00E4A7A440E32002104F1C7
:1004D000240305E000F00F060009965D5E54491CF8
:1004E0000028F7D120780023000704D5702D02D012
:1004F00009B1022311322046BDE8704000F053B824
:10050000B88B0000032A40F2308010F0030C00F09A
:10051000158011F8013BBCF1020F624498BF11F83D
:1005200001CB00F8013B38BF11F8013BA2F10402F6
:1005300098BF00F801CB38BF00F8013B11F003036E
:1005400000F0D080083AC0F0088051F8043B083A27
:1005500051F804CBA0E80810F5E7121D5CBF51F874
:10056000043B40F8043BAFF30080D20724BF11F8EE
:10057000013B11F801CB48BF11F8012B24BF00F853
:10058000013B00F801CB48BF00F8012B704702F097
:10059000FF0343EA032242EA024200F0D7B8704761
:1005A0007047704770472DE9F0470D4699469246CF
:1005B000044600F124080168880604D5E06921F0AA
:1005C0001001216000E00120A84201DD471B00E08E
:1005D0000027A1697A1902EB0900081AA0612078A6
:1005E000C00602D42046AFF30080002608E0D4E91C
:1005F00001211AF806009047206A401C761C2062F0
:100600004E45F4DB2078C0060AD52046AFF30080C3
:1006100006E0D4E9012130209047206A401C206286
:10062000381EA7F10107F4DC07E0D4E9012118F82E
:1006300005009047206A401C2062281EA5F1010594
:10064000F3DC2046AFF300802078000602D50220BC
:10065000BDE8F0870120FBE701694A1C02610878C8
:10066000704700B58FB0CDE90131002105910549F2
:100670007944CDE9031011466846FFF77DFE0FB0BF
:1006800000BD0000E5FFFFFF0A6802F8010B0A60E9
:10069000704710B5436913B1AFF3008001E0FFF775
:1006A0009FFE012010BD127800F124010A70002283
:1006B0004A700122EDE711684FF0FF32E9E70000D0
:1006C000074B70B50D467B44FFF7CBFF0446284629
:1006D00000F05CF810B14FF0FF3070BD204670BDE7
:1006E0009B50000010B5203AC0F00B80B1E81850C4
:1006F000203AA0E81850B1E81850A0E81850BFF40C
:10070000F5AF5FEA027C24BFB1E81850A0E81850AA
:1007100044BF18C918C0BDE810405FEA827C24BFFE
:1007200051F8043B40F8043B08BF7047D20728BF8C
:1007300031F8023B48BF11F8012B28BF20F8023BDB
:1007400048BF00F8012B70474FF000020429C0F0A9
:10075000128010F0030C00F01F80CCF1040CBCF1EF
:10076000020F18BF00F8012BA8BF20F8022BA1EB45
:100770000C0100F011B85FEAC17C24BF00F8012B26
:1007800000F8012B48BF00F8012B7047007B00F0F8
:10079000800070474FF0000200B51346944696461D
:1007A000203922BFA0E80C50A0E80C50B1F1200184
:1007B000BFF4F7AF090728BFA0E80C5048BF0CC032
:1007C0005DF804EB890028BF40F8042B08BF704790
:1007D00048BF20F8022B11F0804F18BF00F8012B02
:1007E0007047754600F02CF8AE4605006946534642
:1007F00020F00700854618B020B5FFF789FDBDE859
:1008000020404FF000064FF000074FF000084FF077
:10081000000B21F00701AC46ACE8C009ACE8C00908
:10082000ACE8C009ACE8C0098D46704710B5044675
:10083000AFF300802046BDE81040FFF7F9BC000090
:100840000048704704550020FEE7FEE770470000AF
:10085000F0B5012189B0084604F0C4F90121022055
:1008600004F0C0F90121084604F0D4F9032501245D
:100870008DF8055002268DF804602C4F8DF8064047
:1008800000948DF807406946384600F0C7F88DF8A7
:1008900005508DF804608DF806408DF8074008205B
:1008A000234C00906946204600F0B8F80122002150
:1008B000384600F0EFF801220321204600F0EAF864
:1008C0002405204604F05CFC0021ADF808104FF62A
:1008D000FF700390ADF81010ADF80A1002A9204681
:1008E00004F0E0FD00231A460321204604F0F0FC4A
:1008F00005A804F065FD0F20ADF81C0005A92046F1
:1009000004F008FD0121204604F02AFC01221146D2
:10091000204604F05DFD42F21071204604F098FD7F
:100920000121204604F022FC09B0F0BD0000024085
:10093000000402408000A0F1C0400029016802D0FC
:1009400041F0010101E0024A1140016070470000DE
:10095000FEFF0F0010B5D0E901121143D0E90323C7
:100960001A4311434269114382691143C269114319
:10097000026A1143426A1143826A1143C26A1143F7
:10098000026B114302689200A2F1C04211608168BB
:10099000082907D101688900A1F1C0410A6842F025
:1009A00040020A60416BD1E9002342EA03128B68DE
:1009B0008C891B0243EA04431A430B8A42EA03521E
:1009C0000B7D896942EA03620A4301688900A1F14B
:1009D000C0414A60C16AB1F5804F08D000686FF02D
:1009E00070418000A0F1C040C0F8041110BD816BBF
:1009F000D1E9002342EA03128B680C8A1B0243EA06
:100A000004531A430B7D896942EA036200680A4372
:100A10008000A0F1C040C0F8042110BDF0B5002254
:100A200001274FF0030C0B6807FA02F52B40AB428D
:100A30002CD1066853000CFA03F4A64306600E7925
:100A4000D0F800E09E4046EA0E0606600E79012EC0
:100A500001D0022E12D18668A64386604E79D0F866
:100A600008E09E4046EA0E0686604668AE43466051
:100A700045688E799640B6B235434560C568A54352
:100A8000C560CC799C40C3681C43C460521C102ACA
:100A9000C9D3F0BD4B07DB0E9A40C90810B500EB77
:100AA0008100016A0F249C40A1430162016A114345
:100AB000016210BD41837047018370471CB501215D
:100AC000402004F08FF801208DF8040000208DF8FC
:100AD00006008DF80700C0210220064C00918DF819
:100AE000050069462046FFF799FFC0212046FFF721
:100AF000E1FF1CBD00180240FEE700002DE9F043B5
:100B0000184F0646002438887D884543B888A0F5EC
:100B1000D041043902D1B879012808D00021084613
:100B200003F00AFE03F06EFF4FF0D84016E00020FD
:100B3000B8714FF02A09A7F80A904FF02B08A7F8D0
:100B40000C80014603F0F8FD0120B871A7F80A8077
:100B5000A7F80C90E6E7A0F88060641CAC42FAD3DA
:100B6000BDE8F083BC0000202DE9F04F4A492A235C
:100B70002B24898845F2105A4FF4305B4FF4285EDD
:100B80004FF448754FF0F00C49F241394FF4A0771B
:100B900045F210364FF4F07280B13F484FF0010833
:100BA000494580F806800780A0F802C001D0B14214
:100BB0003ED12C2505814381848157E036484FF092
:100BC0000008494580F80680A0F800C0478006D09C
:100BD000A1F5D04CBCF1040C01D0B1420CD12C25B4
:100BE00005814381A1F5D0438481043B01D0B1420A
:100BF00044D10780428041E0514507D1A0F808B0B8
:100C0000A0F80AE04FF42C5181810EE0A1F5C856FE
:100C1000633E06D022210181202141812121818151
:100C20002CE02C210181448183810280458025E0D4
:100C3000A1F5D04CBCF1040C09D051450BD1A0F862
:100C400008B0A0F80AE04FF42C53838121E02C2552
:100C50000581448109E0A1F5C85CBCF1630C12D0A8
:100C6000222303812123438120238381A1F5D043C3
:100C7000043B01D0B14201D102804780BDE8F04F72
:100C8000002003F057BC4FF02C0CA0F808C04381A3
:100C9000848105804280E9E7BC0000202DE9F04313
:100CA000414D91460C460246060AA9882846A1F500
:100CB000134340894FEA1428413B16D0A1F5A643BF
:100CC000103B12D0B3F5007313D02E46A1F5C857D0
:100CD000B3793688B61A761E633F23D0A1F5D04784
:100CE000043F3AD0012B4DD04DE003F07FFE30465B
:100CF00039E003F07BFE304603F06CFE6889401C4F
:100D000080B203F073FED0B203F064FEA88903F052
:100D10006DFE404603F05EFEA889401C80B203F0E1
:100D200065FE2BE003B9B2B203F060FE160A30464E
:100D300003F050FED0B203F04DFE304603F04AFE01
:100D4000D0B203F047FEA88903F050FE404603F0FE
:100D500041FEE0B203F03EFE0DE0012B00D1B2B245
:100D600003F044FE100A03F035FED0B203F032FE69
:100D7000A88903F03BFE404603F02CFEE0B203F0EE
:100D800029FE07E0B2B2114603F046FEA8892146CB
:100D900003F042FE4FF0D840298920F87E1FA0F8CA
:100DA0000290BDE8F0830000BC0000202DE9F04F68
:100DB000A1B0002401217A201F9403F013FF012128
:100DC000084603F01BFF4FF40040009001208DF80F
:100DD00004008DF8064002208DF8050001208DF8F2
:100DE00007006946FE48FFF719FE4CF23370009089
:100DF00002208DF804008DF8064003208DF80500D0
:100E000001208DF807006946F648FFF707FE4FF608
:100E10008070009002208DF804008DF806400320B9
:100E20008DF805000120F04D8DF807006946284631
:100E3000FFF7F4FDA814009002208DF804008DF84F
:100E4000064003208DF805000120E84E8DF80700CC
:100E500069463046FFF7E2FDA814009002208DF8A5
:100E600004008DF8064003208DF805000120E04FB6
:100E70008DF8070069463846FFF7D0FD0C220021A7
:100E8000D848FFF707FE0C220121D648FFF702FEE3
:100E90000C220421D348FFF7FDFD0C220521D14887
:100EA000FFF7F8FD0C220821CE48FFF7F3FD0C22D6
:100EB0000921CC48FFF7EEFD0C220A21C948FFF7B3
:100EC000E9FD0C220E21C748FFF7E4FD0C220F219B
:100ED000C448FFF7DFFD0C2207212846FFF7DAFDA3
:100EE0000C2208212846FFF7D5FD0C2209212846AF
:100EF000FFF7D0FD0C220A212846FFF7CBFD0C227C
:100F00000B212846FFF7C6FD0C2211462846FFF7A5
:100F1000C1FD0C220D212846FFF7BCFD0C220E213D
:100F20002846FFF7B7FD0C220F212846FFF7B2FD38
:100F30000C2211463046FFF7ADFD0C221146384613
:100F4000FFF7A8FD0F20CDE911043C20CDE91304E3
:100F5000159409201694CDE917400820CDE91940D1
:100F60001B941C940620CDE902041D941E941020AD
:100F7000CDE9044006940002CDE90A4008940794A4
:100F80008000CDE90C40099411A8CDE90E4018A8C5
:100F9000109002A8FFF7DEFC01210620FFF7CAFC33
:100FA000322004F0A9FB0121002003F035FD32209E
:100FB00004F0A2FB002003F08AFA8E4A4FF0204A88
:100FC0004FF6FF7B908049F2413545F2103645F2ED
:100FD000105441F6631846F60407FF2804D3584519
:100FE00002D0B0F5134F74D1D32003F0FFFC03F00F
:100FF00064FA908003F061FA908003F05EFA0BEAE5
:101000000020D946908003F058FA918808439080D8
:10101000A8425ED0BF2003F0E9FC03F04EFA9080B6
:1010200003F04BFA908003F048FA908003F045FA01
:1010300009EA0020908003F040FA918808439080EC
:10104000B84246D0D42003F0D1FC03F036FA9080A9
:1010500003F033FA908003F030FA09EA0020908020
:1010600003F02BFA918808439080B04231D04FF4BE
:101070005A4003F0BBFC03F020FA90804FF45B4031
:1010800003F0B4FC03F019FA09EA002090804FF451
:101090005C4003F0ABFC03F010FA918808439080A9
:1010A000B0F5004F39D0A04213D0A12003F09EFC30
:1010B00003F003FA908003F000FA09EA0020908020
:1010C00003F0FBF991880843A0F5AE4190806139A7
:1010D00020D080B2A84205D0B04203D0A04201D0B7
:1010E00040451CD1DAF81C11504621F00F01CAF816
:1010F0001C11DAF81C1121F47061CAF81C11DAF81D
:101100001C1141F00301CAF81C11DAF81C1141F45A
:10111000007121E0A2F80480E4E79480E2E7B8429D
:1011200003D0A0F54541053918D1DAF81C11504615
:1011300021F00F01CAF81C11DAF81C1121F47061BA
:10114000CAF81C11DAF81C1141F00A01CAF81C1186
:10115000DAF81C1141F44061C0F81C1191469188E5
:1011600025A0FFF7E9F8B9F80400A8427DD1CF2007
:1011700003F03CFC002003F02DFCC12003F02AFC0E
:10118000302003F027FCED2003F030FC642003F056
:1011900021FC032003F01EFC122003F01BFC812025
:1011A00003F018FCE82003F021FC852003F012FC7A
:1011B000102003F00FFC7A2003F00CFCCB2003F08E
:1011C00015FC392003F006FC2C2003F003FC002062
:1011D00003F000FC342003F0FDFB022014E00000CB
:1011E00000040240000C02400010024000140240C3
:1011F00000180240BC000020204C43442049443ADF
:1012000025780D0A0000000003F0E4FBF72003F04E
:10121000EDFB202003F0DEFBEA2003F0E7FB0020DB
:1012200003F0D8FB002003F0D5FBC02003F0DEFB69
:101230001B2003F0CFFBC12003F0D8FB012003F0FB
:10124000C9FBC52003F0D2FB302003F0C3FB3020E4
:1012500003F0C0FBC72003F0C9FBB72003F0BAFBC3
:10126000362003F0C3FB482000E0A7E003F0B2FB08
:101270003A2003F0BBFB552003F0ACFBB12003F098
:10128000B5FB002003F0A6FB1A2003F0A3FBB62059
:1012900003F0ACFB0A2003F09DFBA22003F09AFBB5
:1012A000F22003F0A3FB002003F094FB262003F0C0
:1012B0009DFB012003F08EFBE02003F097FB0F2045
:1012C00003F088FB2A2003F085FB282003F082FB33
:1012D000082003F07FFB0E2003F07CFB082003F0C6
:1012E00079FB542003F076FBA92003F073FB432025
:1012F00003F070FB0A2003F06DFB0F2003F06AFB84
:10130000002003F067FB002003F064FB002003F0E3
:1013100061FB002003F05EFBE12003F067FB00208F
:1013200003F058FB152003F055FB172003F052FB88
:10133000072003F04FFB112003F04CFB062003F0C5
:1013400049FB2B2003F046FB562003F043FB3C20D7
:1013500003F040FB052003F03DFB102003F03AFBB7
:101360000F2003F037FB3F2003F034FB3F2003F056
:1013700031FB0F2003F02EFB2B2003F037FB002066
:1013800003F028FB002003F025FB012003F022FBE3
:101390003F2003F01FFB2A2003F028FB002003F06E
:1013A00019FB002003F016FB002003F013FBEF20D5
:1013B00003F010FB112003F019FBA5E0B8427CD12B
:1013C000112003F013FB142004F096F9D02003F051
:1013D0000DFB072003F0FEFA422003F0FBFA1D206C
:1013E00003F0F8FAD12003F001FB002003F0F2FA39
:1013F0001A2003F0EFFA092003F0ECFAD22003F0F0
:10140000F5FA012003F0E6FA222003F0E3FAC02007
:1014100003F0ECFA102003F0DDFA3B2003F0DAFAD7
:10142000002003F0D7FA022003F0D4FA112003F0D1
:10143000D1FAC52003F0DAFA032003F0CBFAC82072
:1014400003F0D4FA002003F0C5FA252003F0C2FA15
:10145000212003F0BFFA052003F0BCFA002003F0BE
:10146000B9FA0A2003F0B6FA652003F0B3FA252092
:1014700003F0B0FA772003F0ADFA502003F0AAFA97
:101480000F2003F0A7FA002003F0A4FAF82003F0DD
:10149000ADFA012003F09EFAFE2003F0A7FA002027
:1014A00003F098FA022003F095FA202003F09EFA48
:1014B000362003F09BFA082000E02BE003F08AFAC4
:1014C0003A2003F093FA552003F084FA2B2003F01E
:1014D0008DFA002003F07EFA002003F07BFA012051
:1014E00003F078FA3F2003F075FA2A2003F07EFA21
:1014F000002003F06FFA002003F06CFA012003F0E3
:1015000069FADF2003F066FA782004F0F5F8292064
:1015100001F0FBBEB0427CD1ED2003F067FA012060
:1015200003F058FAFE2003F055FAEE2003F05EFABD
:10153000DE2003F04FFA212003F04CFAF12003F0F3
:1015400055FA012003F046FADF2003F04FFA10208D
:1015500003F040FAC42003F049FA8F2003F03AFA6E
:10156000C62003F043FA002003F034FAE22003F02F
:1015700031FAE22003F02EFAE22003F02BFABF202A
:1015800003F034FAAA2003F025FAB02003F02EFA73
:101590000D2003F01FFA002003F01CFA0D2003F0C9
:1015A00019FA002003F016FA112003F013FA0020B4
:1015B00003F010FA192003F00DFA002003F00AFAE4
:1015C000212003F007FA002003F004FA2D2003F095
:1015D00001FA002003F0FEF93D2003F0FBF90020A2
:1015E00003F0F8F95D2003F0F5F9002003F0F2F9BB
:1015F0005D2003F0EFF9002003F0ECF9B12003F0D7
:10160000F5F9802003F0E6F9002003F0E3F98B20E0
:1016100000E0FCE303F0DEF9002003F0DBF99620A4
:1016200003F0D8F9002003F0D5F9B22003F0DEF979
:10163000002003F0CFF9002003F0CCF9022003F0E2
:10164000C9F9002003F0C6F9032003F0C3F9002014
:1016500003F0C0F9B32003F0C9F9002003F0BAF990
:10166000002003F0B7F9002003F0B4F9002003F0E4
:10167000B1F9002003F0AEF9002003F0ABF900202F
:1016800003F0A8F9002003F0A5F9002003F0A2F967
:10169000002003F09FF9002003F09CF9002003F0E4
:1016A00099F9002003F096F9002003F093F9002047
:1016B00003F090F9002003F08DF9002003F08AF97F
:1016C000002003F087F9002003F084F9002003F0E4
:1016D00081F9002003F07EF9002003F07BF900205F
:1016E00003F078F9002003F075F9B42003F07EF9D7
:1016F0008B2003F06FF9002003F06CF9962003F0C3
:1017000069F9002003F066F9A12003F063F90020D5
:1017100003F060F9B52003F069F9022003F05AF9EB
:10172000002003F057F9032003F054F9002003F0E0
:1017300051F9042003F04EF9002003F04BF9B620D4
:1017400003F054F9002003F045F9002003F042F9BA
:10175000B72003F04BF9002003F03CF9002003F020
:1017600039F93F2003F036F9002003F033F95E2009
:1017700003F030F9002003F02DF9642003F02AF97A
:10178000002003F027F98C2003F024F9002003F057
:1017900021F9AC2003F01EF9002003F01BF9DC2036
:1017A00003F018F9002003F015F9702003F012F986
:1017B000002003F00FF9902003F00CF9002003F053
:1017C00009F9EB2003F006F9002003F003F9DC200F
:1017D00003F000F9002003F0FDF8B82003F006F94B
:1017E000002003F0F7F8002003F0F4F8002003F0E5
:1017F000F1F8002003F0EEF8002003F0EBF80020F1
:1018000003F0E8F8002003F0E5F8002003F0E2F828
:10181000BA2003F0EBF8242003F0DCF8002003F0FA
:10182000D9F8002003F0D6F8002003F0D3F8C12047
:1018300003F0DCF8202003F0CDF8002003F0CAF814
:10184000542003F0C7F8002003F0C4F8FF2003F091
:10185000C1F8002003F0BEF8C22003F0C7F80A2048
:1018600003F0B8F8002003F0B5F8042003F0B2F854
:10187000002003F0AFF8C32003F0B8F83C2003F0D9
:10188000A9F8002003F0A6F83A2003F0A3F80020FE
:1018900003F0A0F8392003F09DF8002003F09AF837
:1018A000372003F097F8002003F094F83C2003F071
:1018B00091F8002003F08EF8362003F08BF800201A
:1018C00003F088F8322003F085F8002003F082F856
:1018D0002F2003F07FF8002003F07CF82C2003F089
:1018E00079F8002003F076F8292003F073F800203F
:1018F00003F070F8262003F06DF8002003F06AF87A
:10190000242003F067F8002003F064F8242003F09B
:1019100061F8002003F05EF8232003F05BF800205C
:1019200003F058F83C2003F055F8002003F052F87B
:10193000362003F04FF8002003F04CF8322003F07B
:1019400049F8002003F046F82F2003F043F8002068
:1019500003F040F82C2003F03DF8002003F03AF8A3
:10196000292003F037F8002003F034F8262003F094
:1019700031F8002003F02EF8242003F02BF800208B
:1019800003F028F8242003F025F8002003F022F8C3
:10199000232003F01FF8002003F01CF8C42003F0FC
:1019A00025F8622003F016F8002003F013F8052054
:1019B00003F010F8002003F00DF8842003F00AF87B
:1019C000002003F007F8F02003F004F8002003F0F3
:1019D00001F8182002F0FEFF002002F0FBFFA42017
:1019E00002F0F8FF002002F0F5FF182002F0F2FFED
:1019F000002002F0EFFF502002F0ECFF002002F088
:101A0000E9FF0C2002F0E6FF002002F0E3FF1720C0
:101A100002F0E0FF002002F0DDFF952002F0DAFF87
:101A2000002002F0D7FFF32002F0D4FF002002F0E4
:101A3000D1FFE62002F0CEFF002002F0CBFFC52050
:101A400002F0D4FF322002F0C5FF002002F0C2FFF6
:101A5000442002F0BFFF002002F0BCFF652002F02E
:101A6000B9FF002002F0B6FF762002F0B3FF00209D
:101A700002F0B0FF882002F0ADFF002002F0AAFFC4
:101A8000C62002F0B3FF202002F0A4FF002002F0E5
:101A9000A1FF172002F09EFF002002F09BFF012013
:101AA00002F098FF002002F095FFC72002F09EFF91
:101AB000002002F08FFF002002F08CFF002002F0D7
:101AC00089FF002002F086FFC82002F08FFF00206F
:101AD00002F080FF002002F07DFF002002F07AFF7C
:101AE000002002F077FFC92002F080FF002002F002
:101AF00071FF002002F06EFF002002F06BFF00205B
:101B000002F068FF002002F065FF002002F062FF93
:101B1000002002F05FFF002002F05CFF002002F0D6
:101B200059FF002002F056FF002002F053FF002072
:101B300002F050FF002002F04DFF002002F04AFFAB
:101B4000002002F047FF002002F044FFE02002F0F6
:101B50004DFF162002F03EFF002002F03BFF1C204C
:101B600002F038FF002002F035FF212002F032FFA2
:101B7000002002F02FFF362002F02CFF002002F0A0
:101B800029FF462002F026FF002002F023FF52200A
:101B900002F020FF002002F01DFF642002F01AFF77
:101BA000002002F017FF7A2002F014FF002002F05C
:101BB00011FF8B2002F00EFF002002F00BFF992096
:101BC00002F008FF002002F005FFA82002F002FF4B
:101BD000002002F0FFFEB92002F0FCFE002002F01F
:101BE000F9FEC42002F0F6FE002002F0F3FECA2047
:101BF00002F0F0FE002002F0EDFED22002F0EAFE3C
:101C0000002002F0E7FED92002F0E4FE002002F0FE
:101C1000E1FEE02002F0DEFE002002F0DBFEF32019
:101C200002F0D8FE002002F0D5FEE12002F0DEFE38
:101C3000162002F0CFFE002002F0CCFE1C2002F0A5
:101C4000C9FE002002F0C6FE222002F0C3FE0020E2
:101C500002F0C0FE362002F0BDFE002002F0BAFE07
:101C6000452002F0B7FE002002F0B4FE522002F040
:101C7000B1FE002002F0AEFE642002F0ABFE0020B8
:101C800002F0A8FE7A2002F0A5FE002002F0A2FEDB
:101C90008B2002F09FFE002002F09CFE992002F0B3
:101CA00099FE002002F096FEA82002F093FE00208C
:101CB00002F090FEB92002F08DFE002002F08AFEB4
:101CC000C42002F087FE002002F084FECA2002F049
:101CD00081FE002002F07EFED22002F07BFE00207A
:101CE00002F078FED82002F075FE002002F072FEAD
:101CF000E02002F06FFE002002F06CFEF32002F004
:101D000069FE002002F066FEE22002F06FFE052070
:101D100002F060FE002002F05DFE0B2002F05AFE91
:101D2000002002F057FE1B2002F054FE002002F0BB
:101D300051FE342002F04EFE002002F04BFE442003
:101D400002F048FE002002F045FE4F2002F042FE65
:101D5000002002F03FFE612002F03CFE002002F075
:101D600039FE792002F036FE002002F033FE882092
:101D700002F030FE002002F02DFE972002F02AFE35
:101D8000002002F027FEA62002F024FE002002F030
:101D900021FEB72002F01EFE002002F01BFEC22032
:101DA00002F018FE002002F015FEC72002F012FE1D
:101DB000002002F00FFED12002F00CFE002002F005
:101DC00009FED62002F006FE002002F003FEDD2010
:101DD00002F000FE002002F0FDFDF32002F0FAFD0B
:101DE000002002F0F7FDE32002F000FE052002F0E3
:101DF000F1FD002002F0EEFD0A2002F0EBFD0020D4
:101E000002F0E8FD1C2002F0E5FD002000E0FDE20C
:101E100002F0E0FD332002F0DDFD002002F0DAFDEB
:101E2000442002F0D7FD002002F0D4FD502002F043
:101E3000D1FD002002F0CEFD622002F0CBFD00209B
:101E400002F0C8FD782002F0C5FD002002F0C2FDBE
:101E5000882002F0BFFD002002F0BCFD972002F0B8
:101E6000B9FD002002F0B6FDA62002F0B3FD00206F
:101E700002F0B0FDB72002F0ADFD002002F0AAFD97
:101E8000C22002F0A7FD002002F0A4FDC72002F04E
:101E9000A1FD002002F09EFDD12002F09BFD00205C
:101EA00002F098FDD52002F095FD002002F092FD91
:101EB000DD2002F08FFD002002F08CFDF32002F007
:101EC00089FD002002F086FDE42002F08FFD012054
:101ED00002F080FD002002F07DFD012002F07AFD7D
:101EE000002002F077FD022002F074FD002002F0D5
:101EF00071FD2A2002F06EFD002002F06BFD3C20F7
:101F000002F068FD002002F065FD4B2002F062FD4A
:101F1000002002F05FFD5D2002F05CFD002002F079
:101F200059FD742002F056FD002002F053FD84207C
:101F300002F050FD002002F04DFD932002F04AFD1A
:101F4000002002F047FDA22002F044FD002002F034
:101F500041FDB32002F03EFD002002F03BFDBE201B
:101F600002F038FD002002F035FDC42002F032FD01
:101F7000002002F02FFDCD2002F02CFD002002F009
:101F800029FDD32002F026FD002002F023FDDD20F4
:101F900002F020FD002002F01DFDF32002F01AFDEA
:101FA000002002F017FDE52002F020FD002002F0E5
:101FB00011FD002002F00EFD002002F00BFD0020BC
:101FC00002F008FD022002F005FD002002F002FDF3
:101FD000292002F0FFFC002002F0FCFC3C2002F073
:101FE000F9FC002002F0F6FC4B2002F0F3FC00208C
:101FF00002F0F0FC5D2002F0EDFC002002F0EAFCB3
:10200000742002F0E7FC002002F0E4FC842002F0DF
:10201000E1FC002002F0DEFC932002F0DBFC00205B
:1020200002F0D8FCA22002F0D5FC002002F0D2FC85
:10203000B32002F0CFFC002002F0CCFCBE2002F066
:10204000C9FC002002F0C6FCC42002F0C3FC002042
:1020500002F0C0FCCD2002F0BDFC002002F0BAFC72
:10206000D32002F0B7FC002002F0B4FCDC2002F028
:10207000B1FC002002F0AEFCF32002F0ABFC00202B
:1020800002F0A8FCE62002F0B1FC112002F0A2FC54
:10209000002002F09FFC342002F09CFC002002F0A3
:1020A00099FC562002F096FC002002F093FC76206A
:1020B00002F090FC002002F08DFC772002F08AFCF8
:1020C000002002F087FC662002F084FC002002F071
:1020D00081FC882002F07EFC002002F07BFC99202D
:1020E00002F078FC002002F075FCBB2002F072FCCC
:1020F000002002F06FFC992002F06CFC002002F03E
:1021000069FC662002F066FC002002F063FC5520AA
:1021100002F060FC002002F05DFC552002F05AFC49
:10212000002002F057FC452002F054FC002002F091
:1021300051FC432002F04EFC002002F04BFC4420F6
:1021400002F048FC002002F045FCE72002F04EFCC3
:10215000322002F03FFC002002F03CFC552002F04F
:1021600039FC002002F036FC762002F033FC00201F
:1021700002F030FC662002F02DFC002002F02AFC68
:10218000672002F027FC002002F024FC672002F008
:1021900021FC002002F01EFC872002F01BFC002026
:1021A00002F018FC992002F015FC002002F012FC4D
:1021B000BB2002F00FFC002002F00CFC992002F082
:1021C00009FC002002F006FC772002F003FC00204E
:1021D00002F000FC442002F0FDFB002002F0FAFBBC
:1021E000562002F0F7FB002002F0F4FB232002F05F
:1021F000F1FB002002F0EEFB332002F0EBFB0020AD
:1022000002F0E8FB452002F0E5FB002002F0E2FBD3
:10221000E82002F0EBFB002002F0DCFB002002F0E3
:10222000D9FB992002F0D6FB002002F0D3FB8720D7
:1022300002F0D0FB002002F0CDFB882002F0CAFBA8
:10224000002002F0C7FB772002F0C4FB002002F060
:10225000C1FB662002F0BEFB002002F0BBFB882021
:1022600002F0B8FB002002F0B5FBAA2002F0B2FB9E
:10227000002002F0AFFBBB2002F0ACFB002002F01C
:10228000A9FB992002F0A6FB002002F0A3FB662028
:1022900002F0A0FB002002F09DFB552002F09AFB0B
:1022A000002002F097FB552002F094FB002002F082
:1022B00091FB442002F08EFB002002F08BFB4420B7
:1022C00002F088FB002002F085FB552002F082FB23
:1022D000002002F07FFBE92002F088FBAA2002F038
:1022E00079FB002002F076FB002002F073FB002057
:1022F00002F070FB002002F079FBAA2002F06AFBDA
:10230000CF2002F073FB002002F064FB002002F0FB
:1023100061FB002002F05EFB002002F05BFB00206E
:1023200002F058FB002002F055FB002002F052FBA7
:10233000002002F04FFB002002F04CFB002002F0D6
:1023400049FB002002F046FB002002F043FB002086
:1023500002F040FB002002F03DFB002002F03AFBBF
:10236000002002F037FB002002F034FBF02002F0E6
:102370003DFB002002F02EFB502002F02BFB002042
:1023800002F028FB002002F025FB002002F022FBD7
:10239000F32002F02BFB002002F01CFBF92002F0DE
:1023A00025FB062002F016FB102002F013FB29206B
:1023B00002F010FB002002F00DFB3A2002F016FBA9
:1023C000552002F007FB112002F010FB642003F0FF
:1023D00093F9292002F00AFB352002F007FB0020C8
:1023E00002F0F8FA512002F001FBFF2002F0F2FAAD
:1023F000532002F0FBFA2C2002F0ECFA552002F0F8
:10240000F5FA822002F0E6FA2C20FCE3A0427DD10E
:102410004FF470435521184602F0FEFA4FF20104C2
:10242000AA21204602F0F8FA651C5221284602F043
:10243000F3FAA61C0821304602F0EEFAE71C01214F
:10244000384602F0E9FA0D214FF4304002F0E4FA88
:102450000D214BF2010002F0DFFA0D214BF20200D8
:1024600002F0DAFA4FF436483421404602F0D4FA4A
:1024700034214BF2016002F0CFFA34214BF20260BA
:1024800002F0CAFA4FF431490D21484602F0C4FA6D
:102490004BF2011A0D21504602F0BEFA0D214BF20B
:1024A000021002F0B9FA34214FF4374002F0B4FAC6
:1024B00034214BF2017002F0AFFA34214BF202707A
:1024C00002F0AAFA00214FF4324002F0A5FA0021EE
:1024D0004BF2012002F0A0FA00214BF2022002F0A0
:1024E0009BFA24214FF4384002F096FA24214BF64F
:1024F000010002F091FA24214BF6020002F08CFA5E
:1025000001214FF43F4002F087FA00E0FEE30F2183
:102510004FF4334002F080FA0F214BF2013002F009
:102520007BFA0F214BF2023002F076FA34214FF49D
:10253000394002F071FA34214BF6011002F06CFAC6
:1025400034214BF6021002F067FA08214FF43540AF
:1025500002F062FA08214BF2015002F05DFA082104
:102560004BF2025002F058FA03214FF4424002F0BD
:1025700053FA24214FF43A4002F04EFA24214BF64C
:10258000012002F049FA24214BF6022002F044FA1D
:1025900000214FF43C4002F03FFA78214BF6014015
:1025A00002F03AFA00214BF6024002F035FA00211F
:1025B0004FF43D4002F030FA78214BF6015002F022
:1025C0002BFA00214BF6025002F026FA00214FF4BC
:1025D0003E4002F021FA64214BF6016002F01CFA41
:1025E00000214FF4514002F017FA33214DF201104F
:1025F00002F012FA00214DF2021002F00DFA34211D
:102600004DF2031002F008FA00214DF2041002F01E
:1026100003FA3A214DF2051002F0FEF900214DF2C5
:10262000061002F0F9F94A214DF2071002F0F4F910
:1026300000214DF2081002F0EFF95C214DF2091073
:1026400002F0EAF900214DF20A1002F0E5F98121C9
:102650004DF20B1002F0E0F900214DF20C1002F0E7
:10266000DBF9A6214DF20D1002F0D6F900214DF252
:102670000E1002F0D1F9E5214DF20F1002F0CCF965
:1026800001214DF2101002F0C7F913214DF2111083
:1026900002F0C2F901214DF2121002F0BDF95421ED
:1026A0004DF2131002F0B8F901214DF2141002F0AE
:1026B000B3F982214DF2151002F0AEF901214DF26D
:1026C000161002F0A9F9CA214DF2171002F0A4F970
:1026D00002214DF2181002F09FF900214DF219105D
:1026E00002F09AF902214DF21A1002F095F9012137
:1026F0004DF21B1002F090F902214DF21C1002F075
:102700008BF934214DF21D1002F086F902214DF2B1
:102710001E1002F081F967214DF21F1002F07CF9C2
:1027200002214DF2201002F077F984214DF22110A0
:1027300002F072F902214DF2221002F06DF9A4218B
:102740004DF2231002F068F902214DF2241002F03C
:1027500063F9B7214DF2251002F05EF902214DF226
:10276000261002F059F9CF214DF2271002F054F94A
:1027700002214DF2281002F04FF9DE214DF229100E
:1027800002F04AF902214DF22A1002F045F9F22135
:102790004DF22B1002F040F902214DF22C1002F004
:1027A0003BF9FE214DF22D1002F036F903214DF2D6
:1027B0002E1002F031F910214DF22F1002F02CF9F9
:1027C00003214DF2301002F027F933214DF2311080
:1027D00002F022F903214DF2321002F01DF96D21B1
:1027E0004DF2331002F018F900214FF4524002F07C
:1027F00013F933214DF2012002F00EF900214DF2C0
:10280000022002F009F934214DF2032002F004F90C
:1028100000214DF2042002F0FFF83A214DF205208C
:1028200002F0FAF800214DF2062002F0F5F84A21F4
:102830004DF2072002F0F0F800214DF2082002F0DE
:10284000EBF85C214DF2092002F0E6F800214DF290
:102850000A2002F0E1F881214DF20B2002F0DCF8B1
:1028600000214DF20C2002F0D7F8A6214DF20D20E8
:1028700002F0D2F800214DF20E2002F0CDF8E52151
:102880004DF20F2002F0C8F801214DF2102002F0A5
:10289000C3F813214DF2112002F0BEF801214DF2D0
:1028A000122002F0B9F854214DF2132002F0B4F8CE
:1028B00001214DF2142002F0AFF882214DF21520D3
:1028C00002F0AAF801214DF2162002F0A5F8CA2163
:1028D0004DF2172002F0A0F802214DF2182002F06C
:1028E0009BF800214DF2192002F096F802214DF2DA
:1028F0001A2002F091F801214DF21B2002F08CF811
:1029000002214DF21C2002F087F834214DF21D20E7
:1029100002F082F802214DF21E2002F07DF86721BC
:102920004DF21F2002F078F802214DF2202002F033
:1029300073F884214DF2212002F06EF802214DF24D
:10294000222002F069F8A4214DF2232002F064F85D
:1029500002214DF2242002F05FF8B7214DF225202C
:1029600002F05AF802214DF2262002F055F8CF214C
:102970004DF2272002F050F802214DF2282002F0FB
:102980004BF8DE214DF2292002F046F802214DF2EB
:102990002A2002F041F8F2214DF22B2002F03CF8FF
:1029A00002214DF22C2002F037F8FE214DF22D20AD
:1029B00002F032F803214DF22E2002F02DF8102102
:1029C0004DF22F2002F028F803214DF2302002F0C2
:1029D00023F833214DF2312002F01EF803214DF28D
:1029E000322002F019F86D214DF2332002F014F874
:1029F00000214FF4534002F00FF833214DF2013023
:102A000002F00AF800214DF2023002F005F83421FC
:102A10004DF2033002F000F800214DF2043001F0D5
:102A2000FBFF3A214DF2053001F0F6FF00214DF297
:102A3000063001F0F1FF4A214DF2073001F0ECFFC2
:102A400000214DF2083001F0E7FF5C214DF2093022
:102A500001F0E2FF00214DF20A3001F0DDFF81219B
:102A60004DF20B3001F0D8FF00214DF20C3001F097
:102A7000D3FFA6214DF20D3001F0CEFF00214DF223
:102A80000E3001F0C9FFE5214DF20F3001F0C4FF17
:102A900001214DF2103001F0BFFF13214DF2113032
:102AA00001F0BAFF01214DF2123001F0B5FF5421BF
:102AB0004DF2133001F0B0FF01214DF2143001F05E
:102AC000ABFF82214DF2153001F0A6FF01214DF23E
:102AD000163001F0A1FFCA214DF2173001F09CFF22
:102AE00002214DF2183001F097FF00214DF219300C
:102AF00001F092FF02214DF21A3001F08DFF012109
:102B00004DF21B3001F088FF02214DF21C3001F024
:102B100083FF34214DF21D3001F07EFF02214DF282
:102B20001E3001F079FF67214DF21F3001F074FF74
:102B300002214DF2203001F06FFF84214DF221304F
:102B400001F06AFF02214DF2223001F065FFA4215D
:102B50004DF2233001F060FF02214DF2243001F0EC
:102B60005BFFB7214DF2253001F056FF02214DF2F7
:102B7000263001F051FFCF214DF2273001F04CFFFC
:102B800002214DF2283001F047FFDE214DF22930BD
:102B900001F042FF02214DF22A3001F03DFFF22107
:102BA0004DF22B3001F038FF02214DF22C3001F0B4
:102BB00033FFFE214DF22D3001F02EFF03214DF2A7
:102BC0002E3001F029FF10214DF22F3001F024FFAB
:102BD00003214DF2303001F01FFF33214DF231302F
:102BE00001F01AFF03214DF2323001F015FF6D2183
:102BF0004DF2333001F010FF00214FF4544001F04A
:102C00000BFF332100E080E34DF2014001F004FFAF
:102C100000214DF2024001F0FFFE34214DF203404D
:102C200001F0FAFE00214DF2044001F0F5FE3A21D8
:102C30004DF2054001F0F0FE00214DF2064001F09A
:102C4000EBFE4A214DF2074001F0E6FE00214DF275
:102C5000084001F0E1FE5C214DF2094001F0DCFE8C
:102C600000214DF20A4001F0D7FE81214DF20B40C8
:102C700001F0D2FE00214DF20C4001F0CDFEA62164
:102C80004DF20D4001F0C8FE00214DF20E4001F062
:102C9000C3FEE5214DF20F4001F0BEFE01214DF2D1
:102CA000104001F0B9FE13214DF2114001F0B4FEC5
:102CB00001214DF2124001F0AFFE54214DF21340BC
:102CC00001F0AAFE01214DF2144001F0A5FE82217F
:102CD0004DF2154001F0A0FE01214DF2164001F029
:102CE0009BFECA214DF2174001F096FE02214DF2E3
:102CF000184001F091FE00214DF2194001F08CFEC8
:102D000002214DF21A4001F087FE00E000E30121AC
:102D10004DF21B4001F080FE02214DF21C4001F0FB
:102D20007BFE34214DF21D4001F076FE02214DF272
:102D30001E4001F071FE67214DF21F4001F06CFE54
:102D400002214DF2204001F067FE84214DF2214026
:102D500001F062FE02214DF2224001F05DFEA4214D
:102D60004DF2234001F058FE02214DF2244001F0C3
:102D700053FEB7214DF2254001F04EFE02214DF2E7
:102D8000264001F049FECF214DF2274001F044FEDC
:102D900002214DF2284001F03FFEDE214DF2294094
:102DA00001F03AFE02214DF22A4001F035FEF221F7
:102DB0004DF22B4001F030FE02214DF22C4001F08B
:102DC0002BFEFE214DF22D4001F026FE03214DF297
:102DD0002E4001F021FE10214DF22F4001F01CFE8B
:102DE00003214DF2304001F017FE33214DF2314006
:102DF00001F012FE03214DF2324001F00DFE6D2173
:102E00004DF2334001F008FE00214FF4554001F02F
:102E100003FE33214DF2015001F0FEFD00214DF281
:102E2000025001F0F9FD34214DF2035001F0F4FDA0
:102E300000214DF2045001F0EFFD3A214DF2055012
:102E400001F0EAFD00214DF2065001F0E5FD4A21B6
:102E50004DF2075001F0E0FD00214DF2085001F065
:102E6000DBFD5C214DF2095001F0D6FD00214DF251
:102E70000A5001F0D1FD81214DF20B5001F0CCFD43
:102E800000214DF20C5001F0C7FDA6214DF20D506E
:102E900001F0C2FD00214DF20E5001F0BDFDE52113
:102EA0004DF20F5001F0B8FD01214DF2105001F02C
:102EB000B3FD13214DF2115001F0AEFD01214DF291
:102EC000125001F0A9FD54214DF2135001F0A4FD60
:102ED00001214DF2145001F09FFD82214DF2155059
:102EE00001F09AFD01214DF2165001F095FDCA2125
:102EF0004DF2175001F090FD02214DF2185001F0F3
:102F00008BFD00214DF2195001F086FD02214DF29A
:102F10001A5001F081FD01214DF21B5001F07CFDA2
:102F200002214DF21C5001F077FD34214DF21D506D
:102F300001F072FD02214DF21E5001F06DFD67217E
:102F40004DF21F5001F068FD02214DF2205001F0BA
:102F500063FD84214DF2215001F05EFD02214DF20E
:102F6000225001F059FDA4214DF2235001F054FDEF
:102F700002214DF2245001F04FFDB7214DF22550B2
:102F800001F04AFD02214DF2265001F045FDCF210E
:102F90004DF2275001F040FD02214DF2285001F082
:102FA0003BFDDE214DF2295001F036FD02214DF2AC
:102FB0002A5001F031FDF2214DF22B5001F02CFD91
:102FC00002214DF22C5001F027FDFE214DF22D5033
:102FD00001F022FD03214DF22E5001F01DFD1021C4
:102FE0004DF22F5001F018FD03214DF2305001F049
:102FF00013FD33214DF2315001F00EFD03214DF24E
:10300000325001F009FD6D214DF2335001F004FD05
:1030100000214FF4564001F0FFFC33214DF20160D6
:1030200001F0FAFC00214DF2026001F0F5FC3421C0
:103030004DF2036001F0F0FC00214DF2046001F05C
:10304000EBFC3A214DF2056001F0E6FC00214DF267
:10305000066001F0E1FC4A214DF2076001F0DCFC62
:1030600000214DF2086001F0D7FC5C214DF20960AF
:1030700001F0D2FC00214DF20A6001F0CDFC81216B
:103080004DF20B6001F0C8FC00214DF20C6001F024
:10309000C3FCA6214DF20D6001F0BEFC00214DF2F3
:1030A0000E6001F0B9FCE5214DF20F6001F0B4FCB7
:1030B00001214DF2106001F0AFFC13214DF21160BF
:1030C00001F0AAFC01214DF2126001F0A5FC54218F
:1030D0004DF2136001F0A0FC01214DF2146001F0EB
:1030E0009BFC82214DF2156001F096FC01214DF20E
:1030F000166001F091FCCA214DF2176001F08CFCC2
:1031000002214DF2186001F087FC00214DF2196098
:1031100001F082FC02214DF21A6001F07DFC0121D8
:103120004DF21B6001F078FC02214DF21C6001F0B1
:1031300073FC34214DF21D6001F06EFC02214DF252
:103140001E6001F069FC67214DF21F6001F064FC14
:1031500002214DF2206001F05FFC84214DF22160DC
:1031600001F05AFC02214DF2226001F055FCA4212D
:103170004DF2236001F050FC02214DF2246001F079
:103180004BFCB7214DF2256001F046FC02214DF2C7
:10319000266001F041FCCF214DF2276001F03CFC9C
:1031A00002214DF2286001F037FCDE214DF229604A
:1031B00001F032FC02214DF22A6001F02DFCF221D7
:1031C0004DF22B6001F028FC02214DF22C6001F041
:1031D00023FCFE214DF22D6001F01EFC03214DF277
:1031E0002E6001F019FC10214DF22F6001F014FC4B
:1031F00003214DF2306001F00FFC33214DF23160BC
:1032000001F00AFC03214DF2326001F005FC6D2152
:103210004DF2336001F000FC5521184601F0FCFB33
:10322000AA21204601F0F8FB5221284601F0F4FBC8
:103230000821304601F0F0FB0021384601F0ECFB9C
:10324000CC21484601F0E8FB0021504601F0E4FBA8
:103250000521404601F0E0FB70214FF4374001F0BA
:10326000DBFB70214BF2017001F0D6FB01214FF422
:10327000384001F0D1FB03214BF6010001F0CCFBFB
:1032800003214BF6020001F0C7FB03214BF60300BC
:1032900001F0C2FB02214FF43C4001F0BDFB0021D4
:1032A0004BF6014001F0B8FB00214BF6024001F063
:1032B000B3FBD0214FF4494001F0AEFB02214CF6A4
:1032C000011001F0A9FB50214CF6021001F0A4FB03
:1032D00050214CF6031001F09FFB50214CF60410D6
:1032E00001F09AFB00214FF4545001F095FB552159
:1032F0004FF4685001F090FB4FF4885001F076FBDA
:10330000782002F015FA4FF4245001F06FFBF3E03F
:10331000A0F513414FF480744FF4E06940F2022AA3
:103320004FF4274625397CD040F20775C91E79D065
:103330004FF488774FF41C56083174D0113973D08C
:10334000A0F5A841083970D0A0F5A8514FF44077F6
:1033500005396BD0B1F5204169D0B1F5805167D006
:10336000A0F58A4131397CD0091F7BD04045CED1B0
:10337000E22001F03BFB1D2001F02CFB022001F0BC
:1033800029FB042001F026FB642002F0D1F9E020A3
:1033900001F02CFB012001F01DFB0A2002F0ACF92A
:1033A000E02001F023FB032001F014FB0C2002F0CD
:1033B000A3F9012001F01AFB0A2002F09DF9E62092
:1033C00001F014FB2F2001F005FBFF2001F002FBB0
:1033D000FF2001F0FFFAB02001F008FB202001F0EF
:1033E000F9FA002001F0F6FA032001F0F3FA40F2B6
:1033F0001F3001F0EFFA012001F0ECFA40F2DF108B
:1034000001F0E8FA002001F0E5FAB42001F0EEFA4C
:10341000042001F0DFFA40F21F4001F0DBFA002047
:1034200007E076E041E1F9E1A0E275E3FEE3FEE3C7
:10343000FEE301F0CFFA2E2001F0CCFA002001F0DB
:10344000C9FA002001F0C6FA002001F0C3FA0020FA
:1034500001F0C0FAB62001F0C9FA022001F0BAFA70
:1034600001E0E6E3E6E34FF4037001F0B3FA002075
:1034700001F0B0FA172001F0ADFA152001F0AAFA18
:10348000002001F0A7FA002001F0A4FAF02001F0DA
:10349000ADFA032001F09EFA292001F0A7FAD0200E
:1034A00001F0A4FA002001F095FABE2001F09EFA86
:1034B000052001F08FFAFE2001F08CFA012001F0C6
:1034C00089FA002001F086FA002001F083FA00203A
:1034D00001F080FAB82001F089FA032001F07AFAAD
:1034E000012001F077FABA2001F080FA012001F002
:1034F00071FA642000F0F6FF0020FDF735FBFF496C
:103500000120C1F8BC025846FDF7F8FA21B0BDE829
:10351000F08F47F6F001E52001F07EFA2146012008
:1035200001F07AFA4946022001F076FA41F23001C0
:10353000032001F071FA0021042001F06DFA5146D8
:10354000082001F069FA0021092001F065FA002144
:103550000A2001F061FA00210C2001F05DFA00213F
:103560000D2001F059FA00210F2001F055FA002139
:10357000102001F051FA0721112001F04DFA00212D
:10358000122001F049FA0021132001F045FA002130
:10359000072001F041FA41F29061102001F03CFA5D
:1035A00040F22721112001F037FA9D21122001F06D
:1035B00033FA4FF4C851132001F02EFA25212920A7
:1035C00001F02AFA0D212B2001F026FA07213020E4
:1035D00001F022FA40F20331312001F01DFA0321FB
:1035E000322001F019FA40F20621352001F014FAD8
:1035F0000821362001F010FA40F20641372001F090
:103600000BFA4FF44171382001F006FA07213920F6
:1036100001F002FA40F202613C2001F0FDF90821BC
:103620003D2001F0F9F90021502001F0F5F9EF21DA
:10363000512001F0F1F90021522001F0EDF940F2A2
:103640003F11532001F0E8F93146602001F0E4F920
:103650000121612001F0E0F900216A2001F0DCF98C
:103660000021802001F0D8F90021812001F0D4F957
:103670000021822001F0D0F90021832001F0CCF953
:103680000021842001F0C8F90021852001F0C4F94F
:103690001021902001F0C0F94FF4C061922001F098
:1036A000BBF940F233110720FEE341F28F01EC2019
:1036B00001F0B2F941F23421EF2001F0ADF92146D9
:1036C000012001F0A9F94946022001F0A5F941F2D3
:1036D0003001032001F0A0F90021042001F09CF941
:1036E0005146082001F098F90021092001F094F9D1
:1036F00000210A2001F090F901210C2001F08CF941
:1037000000210D2001F088F900210F2001F084F93B
:103710000021102001F080F90721112001F07CF92F
:103720000021122001F078F90021132001F074F932
:103730000121072001F070F9322001F0DDFF41F294
:103740009041102001F068F940F22721112001F08A
:1037500063F9322001F0D0FF8A21122001F05CF9D8
:10376000322001F0C9FF4FF4D051132001F054F979
:103770000621292001F050F90D212B2001F04CF9F0
:10378000322001F0B9FF0021202001F045F900218D
:10379000212001F041F9322001F0AEFF002130205C
:1037A00001F03AF940F20461312001F035F940F2BC
:1037B0000531322001F030F90021352001F02CF9DB
:1037C00040F60941362001F027F94FF40171372006
:1037D00001F022F940F20131382001F01DF92946AB
:1037E000392001F019F900213C2001F015F940F6CB
:1037F0000A213D2001F010F9322001F07DFF002167
:10380000502001F009F9EF21512001F005F90021C4
:10381000522001F001F940F23F114EE1002108462B
:1038200001F0FAF82146012001F0F6F8494602209D
:1038300001F0F2F841F23001032001F0EDF800212F
:10384000042001F0E9F85146082001F0E5F80021D4
:10385000092001F0E1F800210A2001F0DDF8012142
:103860000C2001F0D9F800210D2001F0D5F800213D
:103870000F2001F0D1F8322001F03EFF40F201119B
:10388000072001F0C9F8322001F036FF4FF48651CD
:10389000102001F0C1F80721112001F0BDF83946D0
:1038A000122001F0B9F84FF43061132001F0B4F8A0
:1038B0000021292001F0B0F844F210012B2001F082
:1038C000ABF80021502001F0A7F8EF21512001F0C2
:1038D000A3F80021522001F09FF840F23F1153203D
:1038E00001F09AF83146602001F096F8012161203C
:1038F00001F092F800216A2002E0000000804042BE
:1039000001F08AF80021802001F086F80021812052
:1039100001F082F80021822001F07EF8002183204E
:1039200001F07AF80021842001F076F8002185204A
:1039300001F072F81021902001F06EF80021922021
:1039400001F06AF80121932001F066F839469520CC
:1039500001F062F80021972001F05EF80021982024
:1039600001F05AF840F27311072080E341F214018C
:10397000E72001F051F82146012001F04DF84FF405
:103980000071022001F048F841F23801032001F0F3
:1039900043F85146082001F03FF80021092001F0CA
:1039A0003BF800210A2001F037F800210C2001F03B
:1039B00033F800210D2001F02FF800210F2001F035
:1039C0002BF80021102001F027F80721112001F029
:1039D00023F80021122001F01FF80021132001F02C
:1039E0001BF8C82001F088FE41F29061102001F020
:1039F00013F840F22721112001F00EF8322001F0D7
:103A00007BFE0C21122001F007F8322001F074FE39
:103A10004FF40061132000F0FFFF1121292000F076
:103A2000FBFF0B212B2000F0F7FF322001F064FE9A
:103A30000021202000F0F0FF40F23F131946212022
:103A400000F0EAFF0021302000F0E6FF4FF483741D
:103A50002146312000F0E0FF0021322000F0DCFFA1
:103A60004FF40171352000F0D7FF41F20A61362092
:103A700000F0D2FF2946372000F0CEFF2146382043
:103A800000F0CAFF2946392000F0C6FF40F202418B
:103A90003C2000F0C1FF40F60F413D2000F0BCFF8C
:103AA0000021502000F0B8FFEF21512000F0B4FFBA
:103AB0000021522000F0B0FF1946532000F0ACFF67
:103AC0003146602000F0A8FF0121612000F0A4FF32
:103AD00000216A2000F0A0FF0021802000F09CFF60
:103AE0000021812000F098FF0021822000F094FF47
:103AF0000021832000F090FF0021842000F08CFF43
:103B00000021852000F088FF1021902000F084FF24
:103B10004FF4C0619220FCE32146012000F07CFFBD
:103B20004946022000F078FF41F23001032000F006
:103B300073FF0021042000F06FFF40F207210820EE
:103B400000F06AFF0021092000F066FF00210A2032
:103B500000F062FF00210C2000F05EFF00210D202C
:103B600000F05AFF00210F2000F056FF142001F052
:103B7000C3FD41F2B061102000F04EFF0121112081
:103B800000F04AFF0121172000F046FF4FF49C711E
:103B9000122000F041FF4FF40061132000F03CFFC1
:103BA0000921292000F038FF09212A2000F034FFE4
:103BB0000021A42000F030FF0021502000F02CFF55
:103BC000EF21512000F028FF0021522000F024FFB7
:103BD00040F23F11532000F01FFF3146602000F0FB
:103BE0001BFF0121612000F017FF00216A2000F077
:103BF00013FF0021802000F00FFF0021812000F042
:103C00000BFF0021822000F007FF0021832000F03D
:103C100003FF0021842000F0FFFE0021852000F03A
:103C2000FBFE1321902000F0F7FE04E016E022E1F5
:103C30001EE2E5E29AE30021922000F0EDFE03216E
:103C4000932000F0E9FE3946952000F0E5FE40F2B1
:103C50007311072000F0E0FE322008E10021072068
:103C600000F0DAFE322001F047FD4FF48E71122091
:103C700000F0D2FE0121A42000F0CEFE0F2108208A
:103C800000F0CAFE08210A2000F0C6FE08210D201F
:103C900000F0C2FE2B462946302000F0BDFE072171
:103CA000312000F0B9FE40F20361322000F0B4FE92
:103CB0004D464946332000F0AFFE5146342000F017
:103CC000ABFE0221352000F0A7FE41F60F71362031
:103CD00000F0A2FE1946372000F09EFE0021382099
:103CE00000F09AFE0021392000F096FE19463A2095
:103CF00000F092FE00213B2000F08EFE07213C20C8
:103D000000F08AFE00213D2000F086FE322001F006
:103D1000F3FC0121072000F07FFE0121172000F0B5
:103D20007BFE322001F0E8FC4FF4BD51102000F082
:103D300073FE40F21721112000F06EFE4FF48F71D8
:103D4000122000F069FE4FF47061132000F064FE51
:103D500000212A2000F060FE0A21292000F05CFEEC
:103D60004FF49F71122000F057FE0021502000F008
:103D700053FEEF21512000F04FFE0021522000F0B1
:103D80004BFE40F23F11532000F046FE31466020CA
:103D900000F042FE0121612000F03EFE00216A2079
:103DA00000F03AFE0021802000F036FE0021812044
:103DB00000F032FE0021822000F02EFE0021832040
:103DC00000F02AFE0021842000F026FE002185203C
:103DD00000F022FE1321902000F01EFE39469220B2
:103DE00000F01AFE0521932000F016FE0021952018
:103DF00000F012FE0021972000F00EFE0021982016
:103E000000F00AFE2146012000F006FE29460220AD
:103E100000F002FE41F23801032000F0FDFD002118
:103E2000042000F0F9FD00210C2000F0F5FD002138
:103E30000F2000F0F1FD0021202000F0EDFD002119
:103E4000212000F0E9FD2121072000F0E5FD1420EC
:103E500001F052FC6121072000F0DEFD142001F08A
:103E60004BFC40F27311072000F0D6FD142001F046
:103E700043FCFFF741BB0021084600F0CDFD0021C7
:103E8000084600F0C9FD0021084600F0C5FD0021EC
:103E9000084600F0C1FD0121A42000F0BDFD142062
:103EA00001F02AFC314600E0DDE0602000F0B4FDC6
:103EB00055465146082000F0AFFD4FF40571302003
:103EC00000F0AAFD43F21571312000F0A5FD40F28B
:103ED0000461322000F0A0FD40F61661332000F0AE
:103EE0009BFD42F21121342000F096FD4FF4A851C1
:103EF000352000F091FD48F20751362000F08CFD8E
:103F000041F20741372000F087FD41F2034138209C
:103F100000F082FD2021392000F07EFD1A21902042
:103F200000F07AFD0021102000F076FD072111201D
:103F300000F072FD0021122000F06EFD0021132020
:103F400000F06AFD142001F0D7FB4FF4E661102069
:103F500000F062FD40F23711112000F05DFD1420E9
:103F600001F0CAFB4FF4DC71122000F055FD142063
:103F700001F0C2FB4FF47061132000F04DFD802171
:103F80002A2000F049FD4821292000F045FD142099
:103F900001F0B2FB2146012000F03EFD494602201F
:103FA00000F03AFD41F23801032000F035FD2946CA
:103FB000082000F031FD00210A2000F02DFD002135
:103FC0000C2000F029FD00210D2000F025FD3021FE
:103FD0000E2000F021FD0021502000F01DFDEF21FA
:103FE000512000F019FD0021522000F015FD40F293
:103FF0003F11532000F010FD3146602000F00CFD11
:104000000121612000F008FD00216A2000F004FD7C
:104010001121902000F000FD4FF4C061922000F0CB
:10402000FBFC40F20241932000F0F6FC02219420B8
:1040300000F0F2FC142001F05FFB0121072000F0EA
:10404000EBFC142001F058FB6121072000F0E4FC98
:1040500040F27311072000F0DFFC0021202000F067
:10406000DBFC0021212000F0D7FC222100207AE196
:104070000021084600F0D0FC0021084600F0CCFCEE
:10408000142001F039FB0021084600F0C5FC002196
:10409000084600F0C1FC0021084600F0BDFC0021EC
:1040A000084600F0B9FC0121A42000F0B5FC142062
:1040B00001F022FB3146602000F0AEFC40F6060124
:1040C000082000F0A9FC40F203731946302000F0EC
:1040D000A3FC0121312000F09FFC0421322000F0DC
:1040E0009BFC4FF48171332000F096FC394634205C
:1040F00000F092FC40F20311352000F08DFC1F21EE
:10410000362000F089FC1946372000F085FC01219B
:10411000382000F081FC0421392000F07DFC1521BD
:10412000902000F079FC4FF48261102000F074FCC4
:1041300040F24721112000F06FFC4FF4DE71122095
:1041400000F06AFC4FF46061132000F065FC7820F9
:1041500001F0D2FA2146012000F05EFC4FF400711C
:10416000022000F059FC41F23001032000F054FC21
:1041700008210A2000F050FC00210C2000F04CFC2B
:1041800020210E2000F048FC00210F2000F044FC0C
:104190000021202000F040FC0021212000F03CFC08
:1041A0003D212A2000F038FC142001F0A5FA2D2131
:1041B000292000F031FC0021502000F02DFC4DF2B0
:1041C000EF01512000F028FC0021522000F024FCD7
:1041D00040F23F11532000F01FFC0021612000F04D
:1041E0001BFC00216A2000F017FC3946922000F0E9
:1041F00013FC0521932000F00FFC2146FFF7B4BB10
:104200000121002000F008FC0A2001F075FA41F2BB
:104210002861102000F000FC0E21122000F0FCFBB1
:1042200040F63921132000F0F7FB0A2001F064FA70
:104230004021112000F0F0FB5021152000F0ECFB94
:104240000A2001F059FA1E21122000F0E5FB0A2095
:1042500001F052FA4FF4B151102000F0DDFB42F6AC
:104260003921132000F0D8FB0A2001F045FA21463D
:10427000012000F0D1FB3946022000F0CDFB41F2D5
:104280003801032000F0C8FB5146082000F0C4FBB1
:1042900008210A2000F0C0FB0021302000F0BCFB08
:1042A00040F20241312000F0B7FB4FF4837132201D
:1042B00000F0B2FB40F20351332000F0ADFB4FF4AD
:1042C0008271342000F0A8FB40F20131352000F06B
:1042D000A3FB2946362000F09FFB40F20531372032
:1042E00000F09AFB4FF40271382000F095FB40F685
:1042F0000B71392000F090FB0221412000F08CFB73
:104300003146602000F088FB0121612000F084FB31
:1043100000E0CDE04FF40471902000F07DFB4FF4FD
:104320008571922000F078FB0421932000F074FB4B
:104330002146A02000F070FB0121072000F06CFB5B
:104340002121072000F068FB2321072000F064FBF7
:104350003321072000F060FB40F23311072000F00A
:104360005BFB0021A02000F057FB82E530211520E7
:1043700000F052FB10219A2000F04EFB202111206A
:1043800000F04AFB43F22841102000F045FB0221D7
:10439000122000F041FB41F23801132000F03CFBF9
:1043A000282001F0A9F91221084600F035FB282049
:1043B00001F0A2F943F22041102000F02DFB43F25E
:1043C0003801132000F028FB462001F095F9002168
:1043D000302000F021FB40F20241312000F01CFBB4
:1043E00040F20731322000F017FB4FF441713320C7
:1043F00000F012FB0421342000F00EFB40F20141DA
:10440000352000F009FB2946362000F005FB40F27C
:104410000531372000F000FB4FF4C2631946382005
:1044200000F0FAFA1946392000F0F6FA2146012088
:1044300000F0F2FA3946022000F0EEFA41F23001C3
:10444000032000F0E9FA40F60801082000F0E4FA41
:1044500008210A2000F0E0FA3146602000F0DCFA82
:104460000121612000F0D8FA4FF49F71902000F0F4
:10447000D3FA2146922000F0CFFA2146932000F093
:10448000CBFA4FF44051A02000F0C6FA1021A3202F
:1044900000F0C2FA0121072000F0BEFA2121072016
:1044A00000F0BAFA2321072000F0B6FA33210720E2
:1044B00000F0B2FA40F23311A0E608B54FF0D84050
:1044C000B0F88000ADF80000BDF8000008BD10B5E0
:1044D00000F08CFA052001F02BF9BDE81040FFF741
:1044E000ECBF000010B50246BE2000F07FFA0520A8
:1044F00000F070FA104603F0CCF89FED0C1B53EC63
:10450000112B03F0D9F803F097F880B200F062FAAB
:10451000012000F05FFAFF2000F05CFA002000F0BC
:1045200059FABDE81040002000F054BA666666668D
:1045300066660440F0B57F4D00232946AA79898834
:1045400046F6040741F66314012A01D02AB11DE0A2
:10455000B9421BD0A14202D118E0A14216D10828CD
:1045600014D2DFE800F00406080A0C0E1012062030
:104570000CE007200AE0042008E0052006E0012006
:1045800004E0002002E0032000E00220A1F5134C2B
:1045900045F2103245F21056BCF1410C07D0B94239
:1045A00005D0914203D0B14201D0A1427BD108286D
:1045B00012D2DFE800F0110406080A0C0E10802366
:1045C0000AE0402308E0C02306E0202304E0602343
:1045D00002E0A02300E0E023B14202D14FF45850A2
:1045E00000E03620914205D0B14203D0A14201D073
:1045F00043F00803B94201D143F00203194600F029
:104600000BFAAA88A2420AD098062888698802D59F
:10461000884202D303E0884201D9298068806889F2
:10462000B24241D100F0E2F9002000F0D3F96889EC
:10463000401C80B200F0DAF9002000F0CBF9688964
:10464000801C80B200F0D2F92888401EC0F30F20F1
:1046500000F0C0F96889C01C80B200F0C7F9287862
:10466000401EC0B200F0B6F9A88900F0BFF90020E2
:1046700000F0B0F9A889401C80B200F0B7F9002022
:1046800000F0A8F9A889801C80B200F0AFF9688812
:10469000401EC0F30F2000F09DF9A889C01C80B215
:1046A00000F0A4F922E028E000F0A0F9002000F0DA
:1046B00091F9002000F08EF92888401EC0F30F20E9
:1046C00000F088F92878401EC0B200F083F9A8896C
:1046D00000F08CF9002000F07DF9002000F07AF95C
:1046E0006888401EC0F30F2000F074F9A878BDE878
:1046F000F040401EC0B200F06DB9082812D2DFE8C9
:1047000000F0040608110A0C0E1030230AE01023F2
:1047100008E0202306E0382304E0282302E01823E1
:1047200000E00823BDE8F040032043F4805100F08E
:1047300073B90000BC0000202DE9F043DFF844818C
:104740000C460246050AB8F804104046A1F513438A
:1047500040894FEA1429413B17D0A1F5A643103BED
:1047600013D04646A1F5D047B3793688B61A761EDF
:10477000043F0ED0A1F5C857633F1ED0A1F5AA474C
:10478000103F57D0012B72D072E000F02FF928466D
:1047900005E0012B00D1B2B200F028F9100A00F0B8
:1047A00019F9D0B200F016F9B8F80C0000F01EF9B3
:1047B000484600F00FF9E0B22AE06BB300F016F9BA
:1047C000284600F007F9D0B200F004F9B8F800006C
:1047D000401EC0F30F2000F0FDF898F80000401EC6
:1047E000C0B200F0F7F8B8F80C0000F0FFF8484647
:1047F00000F0F0F8E0B200F0EDF8B8F80200401E6A
:10480000C0F30F2000F0E6F898F80200401EC0B296
:10481000BDE8F04300F0DEB8B2B200F0E7F80020E7
:1048200000F0D8F8002000F0D5F8100A00F0D2F817
:10483000D0B2D6E700F0DAF8284600F0CBF8B8F8A6
:104840000A00401C80B200F0D1F8D0B200F0C2F8EB
:10485000B8F80C0000F0CAF8484600F0BBF8B8F809
:104860000C00401C80B200F0C1F8A4E7FFE7B2B230
:10487000114600F0D1F8B8F80C002146BDE8F0432D
:1048800000F0CAB8BC0000201FB5084808A1C268E3
:1048900002A8FBF75DFD182002A9CDE9000103463F
:1048A000C82211461E2000F06BF81FBDCC0000206E
:1048B000256400002DE9F84F82461F460C468B46C2
:1048C000580700D0012000EBD700790810FB01F059
:1048D000203AC0B202F0FF090026009041E00C2F00
:1048E00010D0102F12D0182F3ED1204909EBC9004B
:1048F00001EB80004FF00008855D28060AD51C48B2
:1049000002880BE009EB49001A49F1E71A4901EB6B
:104910000910EFE70A9828B9154842882146504601
:10492000FCF7BCF96806050E1448641CA4B2408864
:10493000A04219D9A4EB0B00B84209D10AF1010039
:104940001FFA80FA0D485C46018851450CD906E0F3
:1049500008F1010000F0FF08B8F1080FCDD3761C74
:10496000F6B200988642BAD3BDE8F88F22830008D9
:1049700020000020BE780008327D0008BC00002026
:104980002DE9F84F044600F0FF0810190D46DDE947
:104990000A761FFA80FA58191FFA80F94FF0000BB7
:1049A00011E0544502D3E819444685B24D450FD273
:1049B0003B4629462046CDF800B0FFF77BFF04EBCD
:1049C000570084B2761C3278A2F120005E28E8D924
:1049D000BDE8F88F01B5BDF80000ADF80000BDF8E6
:1049E00000004FF0D841A1F8800008BD01B5BDF826
:1049F0000000ADF80000BDF800004FF0D841A1F86C
:104A00007E0008BD03484FF0D8410089A1F87E0020
:104A100070470000BC0000204FF0D84222F87E0F03
:104A200051807047FEE700000021014800F09EBB66
:104A3000002000400121014800F098BB0020004008
:104A400010B50446012903D0BDE81040FFF7ECBFC4
:104A5000FFF7F0FF0C4844B1012C0CD0022C11D10F
:104A6000C021BDE81040FCF725B840210446FCF702
:104A700023F8802104E080210446FCF71DF8402142
:104A80002046EEE710BD000000180240704700000D
:104A900030B50F23C27801780125FAB1144A1268A3
:104AA00001F1E02102F4E062C2F5E062C2F3072204
:104AB000C2F10404D3404278A24084781C401443DD
:104AC000220181F80024007800F01F018D40400988
:104AD000800000F1E020C0F8005130BD01F01F005F
:104AE00085404809800000F1E020C0F8805130BDC9
:104AF0000CED00E0024908430249086070470000DD
:104B00000000FA050CED00E009489FED080A32218B
:104B100080ED050A9FED070A80ED060A9FED060A63
:104B2000816080ED040A00207047000000006042B0
:104B3000CC0000208FC2F53D00000000054C00F0C5
:104B40000BF884ED040A0A2000F0D6FDFFF79CFE66
:104B5000F5E70000CC00002010B500F02FF8154953
:104B6000C8608A68101A00EE100A1348B8EEC00A2E
:104B700080ED000AD0ED010A70EE800AC0ED010A56
:104B800091ED051A21EE000A91ED061A4FF4FA7123
:104B900001EE200ABDEEC00A10EE100A884201DBC9
:104BA000084602E0002800DC002000EE100AB8EE03
:104BB000C00A10BDCC0000202400002070B54FF0CA
:104BC0008045284600F09DFB84B2A4F5E264B4F56C
:104BD000005400D5644242F21071284600F038FCBF
:104BE000204670BD044A0029116801D0014300E04D
:104BF000814311607047000030380240044A0029A8
:104C0000116801D0014300E081431160704700004A
:104C100038380240044A0029116801D0014300E0FD
:104C2000814311607047000040380240044A002967
:104C3000116801D0014300E081431160704700001A
:104C400020380240044A0029116801D0014300E0E5
:104C5000814311607047000044380240044A002933
:104C6000116801D0014300E08143116070470000EA
:104C70002438024008B50020009000F02BF80120F5
:104C800000F0BEF800F0FCF80090012821D10020CF
:104C900000F0D2F8022000F0E9F8002000F0A6F8B9
:104CA0004FF4A05000F0B4F84FF4805000F0BAF880
:104CB00007200821009002234FF4A872C80400F0D6
:104CC000C1F8012000F0B8F8392000F075F800288C
:104CD000FAD008BD1048016841F0010101600E4A98
:104CE00000210832116002680C4B1A400260031D5B
:104CF0000B4A1A60084B0B4A84331A60084A103A70
:104D00001B1D1A60026822F48022026002480C30E7
:104D10000160181D0160704700380240FFFFF6EA8D
:104D2000103000240030002070B5204B1968204C52
:104D300011F00C0104D06610042903D0082903D017
:104D400004601BE0066019E0184A121F1168C1F3E5
:104D50008055116801F03F0115B1B6FBF1F101E09A
:104D6000B4FBF1F114681268C4F388146143C2F310
:104D70000142521C5200B1FBF2F1016019680F228E
:104D800002EA11110B4A545C0168E14041601C6861
:104D9000072505EA9424145D21FA04F484601B6855
:104DA00005EA5333D25CD140C16070BD083802407F
:104DB0000024F40038000020024600205109012997
:104DC0000BD002290CD00849096802F01F02012308
:104DD00093400B4200D00120704703497439F3E738
:104DE0000149091FF0E7000074380240034A1168C6
:104DF00021F0F001014311607047000008380240C3
:104E0000024900220A700870704700000238024010
:104E1000034A116821F4E05101431160704700001A
:104E200008380240034A116821F4604141EAC00099
:104E3000106070470838024001490866704700005A
:104E40000000474241EA82115A0810B5054B029C06
:104E500003EB02421143014341EA04600249086046
:104E600010BD00000000FFFF04380240034A116833
:104E700021F003010143116070470000083802402F
:104E800018B500204FF4A04400903120FFF794FFA4
:104E90000099491C0091A14201D00028F5D0312091
:104EA000FFF78AFF002800D0012018BD0CB50022B2
:104EB000274900920192086840F4803008604FF45E
:104EC000A043086800F4003001900098401C009056
:104ED000019810B900989842F3D10868800334D53E
:104EE000012001901A484030026842F0805202606E
:104EF0001848026842F440420260154808300268CF
:104F00000260026842F400420260026842F4A05269
:104F10000260031F104A1A600A6842F080720A6039
:104F20000A689201FCD50D4940F205720A600168D9
:104F300021F003010160016841F002010160016894
:104F4000C1F381010229FAD10CBD01920CBD000010
:104F5000003802400070004008544007003C024006
:104F60004FF0E0210428086903D020F00400086114
:104F7000704740F00400FAE710B502F001F901288B
:104F800003D0BDE8104001F0EFBD10BD124810B5D0
:104F9000016841F4700101601048016841F00101AD
:104FA00001600E4A00210832116002680C4B1A4061
:104FB0000260031D0B4A1A60026822F4802202601C
:104FC00006480C300160FFF771FF03494FF00060A5
:104FD0008039086010BD000088ED00E00038024014
:104FE000FFFFF6FE1030002470B5048C24F001049D
:104FF0000484058B048C4FF6FF7606EA03131343F3
:1050000025F0F3052B4324F00A020A4342F0010184
:105010000383018470BDF0B5048C24F01004048473
:10502000078B068C4FF6FF7404EA011527F47347CB
:1050300004EA0331394304EA02220A4326F0A001BC
:10504000294341F0100102830184F0BD2DE9F043B2
:105050008846814601218BB00802FFF7DBFD012164
:105060002020FFF7BFFD294F092211463846FBF7E4
:1050700011FD7815089002208DF8240003268DF884
:10508000256000248DF8264001258DF8275008A9B9
:105090003846FBF7C3FC1E4FADF80080ADF8084062
:1050A000ADF80240CDF804908DF80A4069463846C4
:1050B00000F0F8F96020ADF80C00ADF80E50ADF836
:1050C000184003A93846059400F08AF908213846AB
:1050D00000F0B6F90121384600F038F801221146F7
:1050E000384600F075F92D208DF828008DF82950EC
:1050F0008DF82A608DF82B500AA8FFF7C9FC002113
:10510000384600F033F80BB0BDE8F08300140240DD
:105110000020004010B50B4C0121204600F0F3F8B0
:10512000012809D1084890ED040A2046BCEEC00AC7
:1051300010EE101A00F08AF92046BDE81040012157
:1051400000F011B800200040CC00002000290188A8
:1051500002D041F0800101E021F080010180704720
:10516000C94301827047C943018270470029018801
:1051700002D041F0010101E021F0010101807047FE
:10518000464910B5884206D101210846FFF766FD61
:10519000002101205BE0B0F1804F09D040498842F6
:1051A0000DD101210220FFF741FD0021022070E016
:1051B00001210846FFF73AFD0021012069E0394945
:1051C000884206D101210420FFF730FD0021042090
:1051D0005FE03549884206D101210820FFF726FD0E
:1051E0000021082055E03149884206D101211020D4
:1051F000FFF71CFD002110204BE02D49884206D10D
:1052000001212020FFF712FD0021202041E0294943
:10521000884206D101210220FFF720FD0021022053
:1052200015E02549884202D101210C040AE02349F6
:10523000884202D101214C0404E0214988420AD16C
:1052400001218C042046FFF709FD00212046BDE81E
:105250001040FFF703BD1B49884206D101214020C1
:10526000FFF7E4FC0021402013E01749884206D1F3
:1052700001218020FFF7DAFC0021802009E013499A
:1052800088420AD1841501212046FFF7CFFC002176
:105290002046BDE81040FFF7C9BC10BD000001402A
:1052A0000004004000080040000C004000100040D6
:1052B000001400400004014000400140004401404F
:1052C0000048014000180040001C00400020004041
:1052D00070B50589048B068C25F007050D434FF644
:1052E000FC410C4040F201110C434FF6FF7101EA02
:1052F000031126F022061143314305810483018402
:1053000070BD406A704702460020128A0A4200D0EF
:10531000012070472DE9F0410C460E884988A2888B
:105320002389054616B3042E28D0082E2E8C4FF65E
:10533000FF702BD026F480562E84AF8B2E8C00EA83
:10534000022200EA013127F473473A4300EA0330AE
:10535000104326F420420A4342F48051A883298452
:10536000E1882846BDE8F04100F090B8FFF73CFE28
:10537000E1882846BDE8F04100F06CB8FFF74BFE2D
:10538000E1882846BDE8F04100F06CB826F480764C
:105390002E84AF8B2E8C00EA012100EA031010430B
:1053A00027F0F307384326F420620A4342F4807161
:1053B000A8832984E1882846BDE8F04100F05EB862
:1053C00000210180418001228280C18001817047DB
:1053D000002A828901D00A4300E08A438281704713
:1053E00030B5028C22F001020284028C8388048B87
:1053F00022F0020224F073050C882C438D8915439A
:105400004A882A430C4DA84202D00C4DA8420DD127
:1054100022F00805CA8923F440732A4322F00405C8
:105420008A882A430D8A1D434B8A2B438380048339
:1054300089684163028430BD0000014000040140DE
:10544000028B22F008020A430283704741637047CF
:1054500041627047028B22F00C020283028B0A43E6
:1054600002837047028B22F440620283028B4FF664
:10547000FF7303EA01210A4302837047828B22F003
:105480000C028283828B0A4382837047828B22F4D0
:1054900040628283828B4FF6FF7303EA01210A4345
:1054A0008283704730B50288164C174DA0420DD04C
:1054B000A8420BD0B0F1804F08D0144B984205D0D1
:1054C000134B984202D0134B984203D122F0700341
:1054D0004A881A43104B984206D0104B984203D08A
:1054E00022F440730A891A4302804A68C2620A8819
:1054F0000285A04201D0A84201D1897A018601210A
:10550000818230BD000001400004014000040040E1
:1055100000080040000C0040001000400014004053
:1055200070B5154C40F22551204600F035F80028A2
:105530000ED0204600F0BEF8104AC1B21088030415
:1055400006D444044FF0000306D50A2901D0138085
:1055500070BD40F400400DE00D2909D0C0F30D04EA
:10556000074D401C80B229551080C728EFD870BD68
:1055700040F48040108070BD0010014030000020D9
:10558000F00000200029818902D041F4005101E09F
:1055900021F400518181704770B501F01F0501268B
:1055A0000024C1F3421306FA05F2012B0FD0022B9F
:1055B0000FD0838A4FEA11210088134206FA01F6C0
:1055C00000EA060001D000B10124204670BD8389A5
:1055D000F0E7038AEEE710B5C1F3421301F01F04B0
:1055E0000121A140012B07D0022B07D01430002A43
:1055F000026805D00A4304E00C30F8E71030F6E703
:105600008A43026010BD00007FB50446008A0D4643
:10561000C98820F4405001432182A08941F20C61E5
:105620008843A9882A8911436A8902431143A181C9
:10563000A08A20F44071A8890843A0826846FFF739
:1056400073FB1A48844202D01948844201D103985E
:1056500000E00298A189090400EBC00101EB0010F1
:10566000296801D5490000E08900B0FBF1F064220F
:10567000B0FBF2F109010B096FF018056B4300EB69
:105680008300A3891D044FF0320306D503EBC0004D
:10569000B0FBF2F000F0070005E003EB0010B0FBF8
:1056A000F2F000F00F00084320817FBD00100140A0
:1056B000001401408088C0F308007047FEE770477F
:1056C00010B504460420FFF74BFC0A484FF47A71EA
:1056D000047014FB01F1012242804FF0E0200269C6
:1056E00042F0020202614161016941F00101016180
:1056F00010BD00002C00002070B5044601F040FDF4
:1057000001280CD0094D6888844203D3B4FBF0F023
:1057100000F0B0FF6888B4FBF0F100FB11444FF4D7
:105720007A706043BDE8704000F002B82C000020A1
:1057300070B54FF0E02500216C69094AAB69127819
:105740005043AA699A42FCD002D2A3EB020302E0C2
:10575000A4EB02063344194413468142F1D370BDD1
:105760002C00002003490A885206FCD5C2B28A8068
:1057700070470000001001407CB5FFF77BFA4FF442
:105780004070FFF7B7F9A820FFF79AFF4FF4E13018
:1057900000F090FDFBF70AFB254C00254FF6FF704B
:1057A0002580FBF7ABF92580182422A0CDE9004025
:1057B0004FF48C7523462A4628211E20FFF7E0F877
:1057C00020A0CDE9004018232A4650211E20FFF7D3
:1057D000D7F820A0CDE900401823D22278211E203E
:1057E000FFF7CEF81FA0CDE900401823C822A02162
:1057F0001E20FFF7C5F8FFF787F9FBF75FF9532184
:1058000040F2F310FFF722FCFBF722F801210846D3
:10581000FFF716F916490120CDE900010023802287
:1058200014A1174801F080FC01F084F800207CBD31
:1058300020000020456D62656465642053797374AF
:10584000656D2000436F75727365204465736967E9
:105850006E000000535831373135303037204775EE
:1058600059750000323031382D392D3500000000D7
:105870000000002073746172745F7461736B0000C8
:10588000416200082DE9F041184E0F460446F568C4
:105890003068001D00F064FD38B9306890F82C10B5
:1058A00001208840316981433161601C07D137B1E3
:1058B0003168BDE8F0410E48091D00F089BD30682F
:1058C0002C44AC424460316805D2B06BBDE8F04175
:1058D000091D00F065BD706B091D00F061FDB06A27
:1058E000844200D2B462BDE8F0810000480000208C
:1058F000C80400202DE9F041054600F075FD2D4E4D
:10590000B068401CB06030682B4F10B1706930B384
:105910002BE03560B068012827D1002404EB840017
:1059200007EB800000F02EFD641C202CF6D32348EA
:1059300000F028FD2148143000F024FD1F482830D5
:1059400000F020FD1D483C3000F01CFD1B4850308D
:1059500000F018FD194870631430B06305E030683A
:10596000E96AC06A884200D83560706A0121401C2B
:1059700070626864E86A326981401143316100EB0A
:10598000800007EB8000291D00F022FD00F068FD7B
:10599000706900280CD03068E96AC06A884207D272
:1059A00007494FF080500860BFF34F8FBFF36F8FF0
:1059B000BDE8F08148000020F801002078040020B4
:1059C00004ED00E010B500F00FFD0E4C2068A0B90A
:1059D0000D4800F0D7FC0C48143000F0D3FC0A4806
:1059E000E0601430206100221021052001F0D2F87F
:1059F000206010B105A100F009FEBDE8104000F0E4
:105A00002FBD000084000020DC040020546D725182
:105A10000000000070B5124E124D1CE000F0D4FFE3
:105A2000306820B1002401F0D9FCA4B901E00124C0
:105A3000F9E700F0D9FCF068C468201D00F090FC84
:105A4000A868401EA8606868401E686000F008FDF5
:105A5000204600F052F868680028DFD170BD0000D1
:105A6000B40400204800002030B4026C0B46002A29
:105A70000BD0C1681144C1604468A14201D30168E0
:105A8000C16030BC1846FAF73DBD30BC70472DE907
:105A9000F041856B174604460026026C82B1C7B1FF
:105AA000E068FAF72FFDE168206C091AE1602268CE
:105AB000914202D26168081AE060022F16D017E006
:105AC0002068A8B9606801F0E3FB0646002060602A
:105AD0000EE0A068FAF716FD216CA0680844A060EB
